{
  "contractName": "Demeter",
  "abi": [
    {
      "inputs": [],
      "stateMutability": "nonpayable",
      "type": "constructor"
    },
    {
      "anonymous": false,
      "inputs": [
        {
          "indexed": false,
          "internalType": "bool",
          "name": "initialized",
          "type": "bool"
        }
      ],
      "name": "Initialized",
      "type": "event"
    },
    {
      "anonymous": false,
      "inputs": [
        {
          "indexed": false,
          "internalType": "address",
          "name": "account",
          "type": "address"
        },
        {
          "indexed": false,
          "internalType": "address",
          "name": "asset",
          "type": "address"
        },
        {
          "indexed": false,
          "internalType": "uint256",
          "name": "amount",
          "type": "uint256"
        }
      ],
      "name": "SynthBurned",
      "type": "event"
    },
    {
      "anonymous": false,
      "inputs": [
        {
          "indexed": false,
          "internalType": "address",
          "name": "account",
          "type": "address"
        },
        {
          "indexed": false,
          "internalType": "address",
          "name": "asset",
          "type": "address"
        },
        {
          "indexed": false,
          "internalType": "uint256",
          "name": "amount",
          "type": "uint256"
        }
      ],
      "name": "SynthIssued",
      "type": "event"
    },
    {
      "anonymous": false,
      "inputs": [
        {
          "indexed": false,
          "internalType": "address",
          "name": "account",
          "type": "address"
        },
        {
          "indexed": false,
          "internalType": "address",
          "name": "asset",
          "type": "address"
        },
        {
          "indexed": false,
          "internalType": "uint256",
          "name": "amount",
          "type": "uint256"
        }
      ],
      "name": "TokenLocked",
      "type": "event"
    },
    {
      "anonymous": false,
      "inputs": [
        {
          "indexed": false,
          "internalType": "address",
          "name": "account",
          "type": "address"
        },
        {
          "indexed": false,
          "internalType": "address",
          "name": "asset",
          "type": "address"
        },
        {
          "indexed": false,
          "internalType": "uint256",
          "name": "amount",
          "type": "uint256"
        }
      ],
      "name": "TokenUnlocked",
      "type": "event"
    },
    {
      "inputs": [
        {
          "internalType": "uint256",
          "name": "",
          "type": "uint256"
        }
      ],
      "name": "Synthetics",
      "outputs": [
        {
          "internalType": "address",
          "name": "tokenAddress",
          "type": "address"
        },
        {
          "internalType": "uint256",
          "name": "exchangePrice",
          "type": "uint256"
        },
        {
          "internalType": "uint256",
          "name": "collateralizationRate",
          "type": "uint256"
        },
        {
          "internalType": "uint256",
          "name": "governanceToken",
          "type": "uint256"
        }
      ],
      "stateMutability": "view",
      "type": "function"
    },
    {
      "inputs": [
        {
          "internalType": "address",
          "name": "govToken",
          "type": "address"
        }
      ],
      "name": "initialize",
      "outputs": [],
      "stateMutability": "nonpayable",
      "type": "function"
    },
    {
      "inputs": [
        {
          "internalType": "address",
          "name": "owner",
          "type": "address"
        }
      ],
      "name": "addOwner",
      "outputs": [],
      "stateMutability": "nonpayable",
      "type": "function"
    },
    {
      "inputs": [],
      "name": "isOwner",
      "outputs": [
        {
          "internalType": "bool",
          "name": "",
          "type": "bool"
        }
      ],
      "stateMutability": "view",
      "type": "function"
    },
    {
      "inputs": [
        {
          "internalType": "address",
          "name": "asset",
          "type": "address"
        },
        {
          "internalType": "uint256",
          "name": "price",
          "type": "uint256"
        }
      ],
      "name": "setExchangePrice",
      "outputs": [],
      "stateMutability": "nonpayable",
      "type": "function"
    },
    {
      "inputs": [
        {
          "internalType": "address",
          "name": "asset",
          "type": "address"
        }
      ],
      "name": "getExchangePrice",
      "outputs": [
        {
          "internalType": "uint256",
          "name": "",
          "type": "uint256"
        }
      ],
      "stateMutability": "view",
      "type": "function"
    },
    {
      "inputs": [
        {
          "internalType": "address",
          "name": "depositedAsset",
          "type": "address"
        },
        {
          "internalType": "address",
          "name": "receivedAsset",
          "type": "address"
        },
        {
          "internalType": "uint256",
          "name": "amount",
          "type": "uint256"
        }
      ],
      "name": "getCollateralizationTotal",
      "outputs": [
        {
          "internalType": "uint256",
          "name": "",
          "type": "uint256"
        }
      ],
      "stateMutability": "view",
      "type": "function"
    },
    {
      "inputs": [
        {
          "internalType": "address",
          "name": "govAddress",
          "type": "address"
        }
      ],
      "name": "setGovernanceAddress",
      "outputs": [],
      "stateMutability": "nonpayable",
      "type": "function"
    },
    {
      "inputs": [],
      "name": "getGovernanceAddress",
      "outputs": [
        {
          "internalType": "address",
          "name": "",
          "type": "address"
        }
      ],
      "stateMutability": "view",
      "type": "function"
    },
    {
      "inputs": [
        {
          "internalType": "address",
          "name": "synth",
          "type": "address"
        },
        {
          "internalType": "uint256",
          "name": "amount",
          "type": "uint256"
        }
      ],
      "name": "lockToken",
      "outputs": [],
      "stateMutability": "payable",
      "type": "function"
    },
    {
      "inputs": [
        {
          "internalType": "address",
          "name": "asset",
          "type": "address"
        }
      ],
      "name": "getSynth",
      "outputs": [
        {
          "components": [
            {
              "internalType": "address",
              "name": "tokenAddress",
              "type": "address"
            },
            {
              "internalType": "uint256",
              "name": "exchangePrice",
              "type": "uint256"
            },
            {
              "internalType": "uint256",
              "name": "collateralizationRate",
              "type": "uint256"
            },
            {
              "internalType": "uint256",
              "name": "governanceToken",
              "type": "uint256"
            }
          ],
          "internalType": "struct Demeter.synthetic",
          "name": "",
          "type": "tuple"
        }
      ],
      "stateMutability": "view",
      "type": "function"
    },
    {
      "inputs": [
        {
          "internalType": "address",
          "name": "asset",
          "type": "address"
        }
      ],
      "name": "returnBalance",
      "outputs": [
        {
          "internalType": "uint256",
          "name": "",
          "type": "uint256"
        }
      ],
      "stateMutability": "view",
      "type": "function"
    },
    {
      "inputs": [
        {
          "internalType": "address",
          "name": "asset",
          "type": "address"
        },
        {
          "internalType": "address",
          "name": "returnAsset",
          "type": "address"
        },
        {
          "internalType": "uint256",
          "name": "amount",
          "type": "uint256"
        }
      ],
      "name": "unlockToken",
      "outputs": [],
      "stateMutability": "payable",
      "type": "function"
    },
    {
      "inputs": [
        {
          "internalType": "address",
          "name": "asset",
          "type": "address"
        },
        {
          "internalType": "uint256",
          "name": "collateralizationRate",
          "type": "uint256"
        },
        {
          "internalType": "uint256",
          "name": "exchangePrice",
          "type": "uint256"
        },
        {
          "internalType": "uint256",
          "name": "govToken",
          "type": "uint256"
        }
      ],
      "name": "addAsset",
      "outputs": [],
      "stateMutability": "nonpayable",
      "type": "function"
    },
    {
      "inputs": [
        {
          "internalType": "address",
          "name": "asset",
          "type": "address"
        }
      ],
      "name": "removeAsset",
      "outputs": [],
      "stateMutability": "nonpayable",
      "type": "function"
    }
  ],
  "bytecode": "0x6080604052600280546001600160a01b031916905534801561002057600080fd5b5061168a806100306000396000f3fe6080604052600436106100e85760003560e01c806375a1608d1161008a578063ce86fef711610059578063ce86fef71461025f578063cfc162541461027f578063dcec81161461029f578063ff0edb1c146102cc576100e8565b806375a1608d146101cd5780638f32d59b146101ed578063a0fa71101461020f578063c4d66de81461023f576100e8565b806339ba8188116100c657806339ba8188146101585780634a5e42b11461016b5780637065cb481461018b57806373252494146101ab576100e8565b806314ad2732146100ed57806317be3fa51461010f578063264b2b8e14610122575b600080fd5b3480156100f957600080fd5b5061010d6101083660046112d9565b6102ec565b005b61010d61011d3660046112d9565b610398565b34801561012e57600080fd5b5061014261013d36600461127e565b610536565b60405161014f9190611633565b60405180910390f35b61010d610166366004611299565b6105ff565b34801561017757600080fd5b5061010d61018636600461127e565b6107a2565b34801561019757600080fd5b5061010d6101a636600461127e565b61091b565b3480156101b757600080fd5b506101c061099a565b60405161014f919061138d565b3480156101d957600080fd5b5061010d6101e8366004611303565b610a0c565b3480156101f957600080fd5b50610202610b5a565b60405161014f9190611404565b34801561021b57600080fd5b5061022f61022a36600461135d565b610bad565b60405161014f94939291906113de565b34801561024b57600080fd5b5061010d61025a36600461127e565b610bee565b34801561026b57600080fd5b5061014261027a36600461127e565b610dcc565b34801561028b57600080fd5b5061010d61029a36600461127e565b610e46565b3480156102ab57600080fd5b506102bf6102ba36600461127e565b610eed565b60405161014f91906115ff565b3480156102d857600080fd5b506101426102e7366004611299565b610fcb565b6102f4610b5a565b806102fe57503330145b6103235760405162461bcd60e51b815260040161031a90611462565b60405180910390fd5b60005b60035481101561039357826001600160a01b03166003828154811061034757fe5b60009182526020909120600490910201546001600160a01b0316141561038b57816003828154811061037557fe5b9060005260206000209060040201600101819055505b600101610326565b505050565b60003411806103a75750600081115b6103c35760405162461bcd60e51b815260040161031a906114cc565b3415610446576002546103ed90839033906103e8906001600160a01b03168334610fcb565b611047565b6002547fa4bc0e66acb255c02394fafc0b8f424e14d8052ee7b143b1a33fc7ace365073d903390849061042a906001600160a01b03168234610fcb565b604051610439939291906113a1565b60405180910390a1610532565b61044e61099a565b6001600160a01b031663a9059cbb30836040518363ffffffff1660e01b815260040161047b9291906113c5565b602060405180830381600087803b15801561049557600080fd5b505af11580156104a9573d6000803e3d6000fd5b505050506040513d601f19601f820116820180604052506104cd919081019061133d565b506104e582336103e86104de61099a565b8686610fcb565b7fa4bc0e66acb255c02394fafc0b8f424e14d8052ee7b143b1a33fc7ace365073d338361051a61051361099a565b8634610fcb565b604051610529939291906113a1565b60405180910390a15b5050565b60006001600160a01b03821661055e5760405162461bcd60e51b815260040161031a9061156d565b6002546001600160a01b038381169116141561057b5750476105fa565b6040516370a0823160e01b81526001600160a01b038316906370a08231906105a790309060040161138d565b60206040518083038186803b1580156105bf57600080fd5b505afa1580156105d3573d6000803e3d6000fd5b505050506040513d601f19601f820116820180604052506105f79190810190611375565b90505b919050565b600034118061060e5750600081115b61062a5760405162461bcd60e51b815260040161031a906114cc565b6001600160a01b0382166106505760405162461bcd60e51b815260040161031a906115ca565b600061065d848484610fcb565b6002549091506001600160a01b03858116911614156106e857600254819061068d906001600160a01b0316610536565b116106aa5760405162461bcd60e51b815260040161031a9061159a565b6106b58433846110e7565b604051339082156108fc029083906000818181858888f193505050501580156106e2573d6000803e3d6000fd5b5061079c565b806106f285610536565b1161070f5760405162461bcd60e51b815260040161031a9061159a565b61071a8433846110e7565b60405163a9059cbb60e01b81526001600160a01b0384169063a9059cbb9061074890339085906004016113c5565b602060405180830381600087803b15801561076257600080fd5b505af1158015610776573d6000803e3d6000fd5b505050506040513d601f19601f8201168201806040525061079a919081019061133d565b505b50505050565b6107aa610b5a565b806107b457503330145b6107d05760405162461bcd60e51b815260040161031a90611462565b60005b60035481101561053257816001600160a01b0316600382815481106107f457fe5b60009182526020909120600490910201546001600160a01b031614156109135760038054600019810190811061082657fe5b90600052602060002090600402016003828154811061084157fe5b60009182526020909120825460049092020180546001600160a01b0319166001600160a01b039092169190911781556001808301549082015560028083015490820155600391820154908201558054600019810190811061089e57fe5b60009182526020822060049091020180546001600160a01b031916815560018101829055600281018290556003908101919091558054806108db57fe5b60008281526020812060046000199093019283020180546001600160a01b031916815560018101829055600281018290556003015590555b6001016107d3565b610923610b5a565b8061092d57503330145b6109495760405162461bcd60e51b815260040161031a90611462565b6001805480820182556000919091527fb10e2d527612073b26eecdfd717e6a320cf44b4afac2b0732d9fcbe2b7fa0cf60180546001600160a01b0319166001600160a01b0392909216919091179055565b6000805b600354811015610a0757600381815481106109b557fe5b906000526020600020906004020160030154600114156109ff57600381815481106109dc57fe5b60009182526020909120600490910201546001600160a01b03169150610a099050565b60010161099e565b505b90565b610a14610b5a565b80610a1e57503330145b610a3a5760405162461bcd60e51b815260040161031a90611462565b8060011480610a47575080155b610a635760405162461bcd60e51b815260040161031a90611528565b610a6b611236565b50604080516080810182526001600160a01b03958616815260208101938452908101938452606081019182526003805460018101825560009190915290517fc2575a0e9e593c00f959f8c92f12db2869c3395a3b0502d05e2516446f71f85b600490920291820180546001600160a01b031916919096161790945590517fc2575a0e9e593c00f959f8c92f12db2869c3395a3b0502d05e2516446f71f85c84015590517fc2575a0e9e593c00f959f8c92f12db2869c3395a3b0502d05e2516446f71f85d830155517fc2575a0e9e593c00f959f8c92f12db2869c3395a3b0502d05e2516446f71f85e90910155565b600080600154811015610a0757336001600160a01b031660018281548110610b7e57fe5b6000918252602090912001546001600160a01b03161415610ba3576001915050610a09565b6000915050610a09565b60038181548110610bba57fe5b600091825260209091206004909102018054600182015460028301546003909301546001600160a01b039092169350919084565b60005460ff1615610c115760405162461bcd60e51b815260040161031a906114fb565b610c19611236565b6040518060800160405280836001600160a01b031681526020016101f48152602001600a815260200160018152509050610c51611236565b50604080516080810182526002546001600160a01b03908116825260016020808401828152600a858701908152600060608088018281526003805480890182558185528c5160049182027fc2575a0e9e593c00f959f8c92f12db2869c3395a3b0502d05e2516446f71f85b8181018054938e166001600160a01b0319948516179055998f01517fc2575a0e9e593c00f959f8c92f12db2869c3395a3b0502d05e2516446f71f85c808301919091559d8f01517fc2575a0e9e593c00f959f8c92f12db2869c3395a3b0502d05e2516446f71f85d808301919091559e909501517fc2575a0e9e593c00f959f8c92f12db2869c3395a3b0502d05e2516446f71f85e958601558254808b019093559a519102968701805491909916908a1617909755925197840197909755519682019690965591519190940155825480840184558383527fb10e2d527612073b26eecdfd717e6a320cf44b4afac2b0732d9fcbe2b7fa0cf601805490911633179055805460ff1916909117905550565b6000805b600354811015610e4057826001600160a01b031660038281548110610df157fe5b60009182526020909120600490910201546001600160a01b03161415610e385760038181548110610e1e57fe5b9060005260206000209060040201600101549150506105fa565b600101610dd0565b50919050565b610e4e610b5a565b80610e5857503330145b610e745760405162461bcd60e51b815260040161031a90611462565b60005b6003548110156105325760038181548110610e8e57fe5b90600052602060002090600402016003015460011415610ee5578160038281548110610eb657fe5b6000918252602090912060049091020180546001600160a01b0319166001600160a01b03929092169190911790555b600101610e77565b610ef5611236565b60005b600354811015610e4057826001600160a01b031660038281548110610f1957fe5b60009182526020909120600490910201546001600160a01b0316148015610f5e575060038181548110610f4857fe5b9060005260206000209060040201600301546000145b15610fc35760038181548110610f7057fe5b600091825260209182902060408051608081018252600490930290910180546001600160a01b03168352600181015493830193909352600283015490820152600390910154606082015291506105fa9050565b600101610ef8565b6000610fd5611236565b610fde85610eed565b9050610fe8611236565b610ff185610eed565b9050600061100c83604001518661117a90919063ffffffff16565b9050600061103b836020015161102f8660200151856111c590919063ffffffff16565b9063ffffffff61117a16565b98975050505050505050565b6040516340c10f1960e01b81526001600160a01b038416906340c10f199061107590859085906004016113c5565b600060405180830381600087803b15801561108f57600080fd5b505af11580156110a3573d6000803e3d6000fd5b505050507fa4bc0e66acb255c02394fafc0b8f424e14d8052ee7b143b1a33fc7ace365073d8284836040516110da939291906113a1565b60405180910390a1505050565b60405163079cc67960e41b81526001600160a01b038416906379cc67909061111590859085906004016113c5565b600060405180830381600087803b15801561112f57600080fd5b505af1158015611143573d6000803e3d6000fd5b505050507f9d520f32f41bdba6d25b2d7fc7b16b0cf5f8e8cded1367c79275acae387159b68284836040516110da939291906113a1565b60006111bc83836040518060400160405280601a81526020017f536166654d6174683a206469766973696f6e206279207a65726f0000000000008152506111ff565b90505b92915050565b6000826111d4575060006111bf565b828202828482816111e157fe5b04146111bc5760405162461bcd60e51b815260040161031a9061148b565b600081836112205760405162461bcd60e51b815260040161031a919061140f565b50600083858161122c57fe5b0495945050505050565b604051806080016040528060006001600160a01b031681526020016000815260200160008152602001600081525090565b80356001600160a01b03811681146111bf57600080fd5b60006020828403121561128f578081fd5b6111bc8383611267565b6000806000606084860312156112ad578182fd5b83356112b88161163c565b925060208401356112c88161163c565b929592945050506040919091013590565b600080604083850312156112eb578182fd5b6112f58484611267565b946020939093013593505050565b60008060008060808587031215611318578081fd5b84356113238161163c565b966020860135965060408601359560600135945092505050565b60006020828403121561134e578081fd5b815180151581146111bc578182fd5b60006020828403121561136e578081fd5b5035919050565b600060208284031215611386578081fd5b5051919050565b6001600160a01b0391909116815260200190565b6001600160a01b039384168152919092166020820152604081019190915260600190565b6001600160a01b03929092168252602082015260400190565b6001600160a01b0394909416845260208401929092526040830152606082015260800190565b901515815260200190565b6000602080835283518082850152825b8181101561143b5785810183015185820160400152820161141f565b8181111561144c5783604083870101525b50601f01601f1916929092016040019392505050565b6020808252600f908201526e2737ba1020baba3437b934bd32b21760891b604082015260600190565b60208082526021908201527f536166654d6174683a206d756c7469706c69636174696f6e206f766572666c6f6040820152607760f81b606082015260800190565b602080825260159082015274135d5cdd0819195c1bdcda5d08185b88185cdcd95d605a1b604082015260600190565b602080825260139082015272105b1c9958591e481a5b9a5d1a585b1a5e9959606a1b604082015260600190565b60208082526025908201527f676f76546f6b656e20706172616d6574657273206f6e6c792074616b6520302060408201526437b910189760d91b606082015260800190565b602080825260139082015272456e746572206173736574206164647265737360681b604082015260600190565b602080825260169082015275139bdd08195b9bdd59da081a5b8818dbdb9d1c9858dd60521b604082015260600190565b6020808252818101527f4d75737420686176652072657475726e20617373657420737065636966696564604082015260600190565b81516001600160a01b0316815260208083015190820152604080830151908201526060918201519181019190915260800190565b90815260200190565b6001600160a01b038116811461165157600080fd5b5056fea2646970667358221220c196da4cc099609d43c2828cf37d172c5a7e0d1e053dff2fe6b44672bbdb421564736f6c63430006020033",
  "source": "// SPDX-License-Identifier: MIT\n\npragma solidity ^0.6.2;\npragma experimental ABIEncoderV2;\n\n/*\n * @dev Provides information about the current execution context, including the\n * sender of the transaction and its data. While these are generally available\n * via msg.sender and msg.data, they should not be accessed in such a direct\n * manner, since when dealing with GSN meta-transactions the account sending and\n * paying for execution may not be the actual sender (as far as an application\n * is concerned).\n *\n * This contract is only required for intermediate, library-like contracts.\n */\nabstract contract Context {\n    function _msgSender() internal view virtual returns (address payable) {\n        return msg.sender;\n    }\n\n    function _msgData() internal view virtual returns (bytes memory) {\n        this; // silence state mutability warning without generating bytecode - see https://github.com/ethereum/solidity/issues/2691\n        return msg.data;\n    }\n}\n\n/**\n * @dev Interface of the ERC20 standard as defined in the EIP.\n */\ninterface IERC20 {\n    /**\n     * @dev Returns the amount of tokens in existence.\n     */\n    function totalSupply() external view returns (uint256);\n\n    /**\n     * @dev Returns the amount of tokens owned by `account`.\n     */\n    function balanceOf(address account) external view returns (uint256);\n\n    /**\n     * @dev Moves `amount` tokens from the caller's account to `recipient`.\n     *\n     * Returns a boolean value indicating whether the operation succeeded.\n     *\n     * Emits a {Transfer} event.\n     */\n    function transfer(address recipient, uint256 amount) external returns (bool);\n\n    /**\n     * @dev Returns the remaining number of tokens that `spender` will be\n     * allowed to spend on behalf of `owner` through {transferFrom}. This is\n     * zero by default.\n     *\n     * This value changes when {approve} or {transferFrom} are called.\n     */\n    function allowance(address owner, address spender) external view returns (uint256);\n\n    /**\n     * @dev Sets `amount` as the allowance of `spender` over the caller's tokens.\n     *\n     * Returns a boolean value indicating whether the operation succeeded.\n     *\n     * IMPORTANT: Beware that changing an allowance with this method brings the risk\n     * that someone may use both the old and the new allowance by unfortunate\n     * transaction ordering. One possible solution to mitigate this race\n     * condition is to first reduce the spender's allowance to 0 and set the\n     * desired value afterwards:\n     * https://github.com/ethereum/EIPs/issues/20#issuecomment-263524729\n     *\n     * Emits an {Approval} event.\n     */\n    function approve(address spender, uint256 amount) external returns (bool);\n\n    /**\n     * @dev Moves `amount` tokens from `sender` to `recipient` using the\n     * allowance mechanism. `amount` is then deducted from the caller's\n     * allowance.\n     *\n     * Returns a boolean value indicating whether the operation succeeded.\n     *\n     * Emits a {Transfer} event.\n     */\n    function transferFrom(address sender, address recipient, uint256 amount) external returns (bool);\n\n    /**\n     * @dev Emitted when `value` tokens are moved from one account (`from`) to\n     * another (`to`).\n     *\n     * Note that `value` may be zero.\n     */\n    event Transfer(address indexed from, address indexed to, uint256 value);\n\n    /**\n     * @dev Emitted when the allowance of a `spender` for an `owner` is set by\n     * a call to {approve}. `value` is the new allowance.\n     */\n    event Approval(address indexed owner, address indexed spender, uint256 value);\n}\n\n/**\n * @dev Wrappers over Solidity's arithmetic operations with added overflow\n * checks.\n *\n * Arithmetic operations in Solidity wrap on overflow. This can easily result\n * in bugs, because programmers usually assume that an overflow raises an\n * error, which is the standard behavior in high level programming languages.\n * `SafeMath` restores this intuition by reverting the transaction when an\n * operation overflows.\n *\n * Using this library instead of the unchecked operations eliminates an entire\n * class of bugs, so it's recommended to use it always.\n */\nlibrary SafeMath {\n    /**\n     * @dev Returns the addition of two unsigned integers, reverting on\n     * overflow.\n     *\n     * Counterpart to Solidity's `+` operator.\n     *\n     * Requirements:\n     *\n     * - Addition cannot overflow.\n     */\n    function add(uint256 a, uint256 b) internal pure returns (uint256) {\n        uint256 c = a + b;\n        require(c >= a, \"SafeMath: addition overflow\");\n\n        return c;\n    }\n\n    /**\n     * @dev Returns the subtraction of two unsigned integers, reverting on\n     * overflow (when the result is negative).\n     *\n     * Counterpart to Solidity's `-` operator.\n     *\n     * Requirements:\n     *\n     * - Subtraction cannot overflow.\n     */\n    function sub(uint256 a, uint256 b) internal pure returns (uint256) {\n        return sub(a, b, \"SafeMath: subtraction overflow\");\n    }\n\n    /**\n     * @dev Returns the subtraction of two unsigned integers, reverting with custom message on\n     * overflow (when the result is negative).\n     *\n     * Counterpart to Solidity's `-` operator.\n     *\n     * Requirements:\n     *\n     * - Subtraction cannot overflow.\n     */\n    function sub(uint256 a, uint256 b, string memory errorMessage) internal pure returns (uint256) {\n        require(b <= a, errorMessage);\n        uint256 c = a - b;\n\n        return c;\n    }\n\n    /**\n     * @dev Returns the multiplication of two unsigned integers, reverting on\n     * overflow.\n     *\n     * Counterpart to Solidity's `*` operator.\n     *\n     * Requirements:\n     *\n     * - Multiplication cannot overflow.\n     */\n    function mul(uint256 a, uint256 b) internal pure returns (uint256) {\n        // Gas optimization: this is cheaper than requiring 'a' not being zero, but the\n        // benefit is lost if 'b' is also tested.\n        // See: https://github.com/OpenZeppelin/openzeppelin-contracts/pull/522\n        if (a == 0) {\n            return 0;\n        }\n\n        uint256 c = a * b;\n        require(c / a == b, \"SafeMath: multiplication overflow\");\n\n        return c;\n    }\n\n    /**\n     * @dev Returns the integer division of two unsigned integers. Reverts on\n     * division by zero. The result is rounded towards zero.\n     *\n     * Counterpart to Solidity's `/` operator. Note: this function uses a\n     * `revert` opcode (which leaves remaining gas untouched) while Solidity\n     * uses an invalid opcode to revert (consuming all remaining gas).\n     *\n     * Requirements:\n     *\n     * - The divisor cannot be zero.\n     */\n    function div(uint256 a, uint256 b) internal pure returns (uint256) {\n        return div(a, b, \"SafeMath: division by zero\");\n    }\n\n    /**\n     * @dev Returns the integer division of two unsigned integers. Reverts with custom message on\n     * division by zero. The result is rounded towards zero.\n     *\n     * Counterpart to Solidity's `/` operator. Note: this function uses a\n     * `revert` opcode (which leaves remaining gas untouched) while Solidity\n     * uses an invalid opcode to revert (consuming all remaining gas).\n     *\n     * Requirements:\n     *\n     * - The divisor cannot be zero.\n     */\n    function div(uint256 a, uint256 b, string memory errorMessage) internal pure returns (uint256) {\n        require(b > 0, errorMessage);\n        uint256 c = a / b;\n        // assert(a == b * c + a % b); // There is no case in which this doesn't hold\n\n        return c;\n    }\n\n    /**\n     * @dev Returns the remainder of dividing two unsigned integers. (unsigned integer modulo),\n     * Reverts when dividing by zero.\n     *\n     * Counterpart to Solidity's `%` operator. This function uses a `revert`\n     * opcode (which leaves remaining gas untouched) while Solidity uses an\n     * invalid opcode to revert (consuming all remaining gas).\n     *\n     * Requirements:\n     *\n     * - The divisor cannot be zero.\n     */\n    function mod(uint256 a, uint256 b) internal pure returns (uint256) {\n        return mod(a, b, \"SafeMath: modulo by zero\");\n    }\n\n    /**\n     * @dev Returns the remainder of dividing two unsigned integers. (unsigned integer modulo),\n     * Reverts with custom message when dividing by zero.\n     *\n     * Counterpart to Solidity's `%` operator. This function uses a `revert`\n     * opcode (which leaves remaining gas untouched) while Solidity uses an\n     * invalid opcode to revert (consuming all remaining gas).\n     *\n     * Requirements:\n     *\n     * - The divisor cannot be zero.\n     */\n    function mod(uint256 a, uint256 b, string memory errorMessage) internal pure returns (uint256) {\n        require(b != 0, errorMessage);\n        return a % b;\n    }\n}\n\n/**\n * @dev Collection of functions related to the address type\n */\nlibrary Address {\n    /**\n     * @dev Returns true if `account` is a contract.\n     *\n     * [IMPORTANT]\n     * ====\n     * It is unsafe to assume that an address for which this function returns\n     * false is an externally-owned account (EOA) and not a contract.\n     *\n     * Among others, `isContract` will return false for the following\n     * types of addresses:\n     *\n     *  - an externally-owned account\n     *  - a contract in construction\n     *  - an address where a contract will be created\n     *  - an address where a contract lived, but was destroyed\n     * ====\n     */\n    function isContract(address account) internal view returns (bool) {\n        // This method relies in extcodesize, which returns 0 for contracts in\n        // construction, since the code is only stored at the end of the\n        // constructor execution.\n\n        uint256 size;\n        // solhint-disable-next-line no-inline-assembly\n        assembly { size := extcodesize(account) }\n        return size > 0;\n    }\n\n    /**\n     * @dev Replacement for Solidity's `transfer`: sends `amount` wei to\n     * `recipient`, forwarding all available gas and reverting on errors.\n     *\n     * https://eips.ethereum.org/EIPS/eip-1884[EIP1884] increases the gas cost\n     * of certain opcodes, possibly making contracts go over the 2300 gas limit\n     * imposed by `transfer`, making them unable to receive funds via\n     * `transfer`. {sendValue} removes this limitation.\n     *\n     * https://diligence.consensys.net/posts/2019/09/stop-using-soliditys-transfer-now/[Learn more].\n     *\n     * IMPORTANT: because control is transferred to `recipient`, care must be\n     * taken to not create reentrancy vulnerabilities. Consider using\n     * {ReentrancyGuard} or the\n     * https://solidity.readthedocs.io/en/v0.5.11/security-considerations.html#use-the-checks-effects-interactions-pattern[checks-effects-interactions pattern].\n     */\n    function sendValue(address payable recipient, uint256 amount) internal {\n        require(address(this).balance >= amount, \"Address: insufficient balance\");\n\n        // solhint-disable-next-line avoid-low-level-calls, avoid-call-value\n        (bool success, ) = recipient.call{ value: amount }(\"\");\n        require(success, \"Address: unable to send value, recipient may have reverted\");\n    }\n\n    /**\n     * @dev Performs a Solidity function call using a low level `call`. A\n     * plain`call` is an unsafe replacement for a function call: use this\n     * function instead.\n     *\n     * If `target` reverts with a revert reason, it is bubbled up by this\n     * function (like regular Solidity function calls).\n     *\n     * Returns the raw returned data. To convert to the expected return value,\n     * use https://solidity.readthedocs.io/en/latest/units-and-global-variables.html?highlight=abi.decode#abi-encoding-and-decoding-functions[`abi.decode`].\n     *\n     * Requirements:\n     *\n     * - `target` must be a contract.\n     * - calling `target` with `data` must not revert.\n     *\n     * _Available since v3.1._\n     */\n    function functionCall(address target, bytes memory data) internal returns (bytes memory) {\n      return functionCall(target, data, \"Address: low-level call failed\");\n    }\n\n    /**\n     * @dev Same as {xref-Address-functionCall-address-bytes-}[`functionCall`], but with\n     * `errorMessage` as a fallback revert reason when `target` reverts.\n     *\n     * _Available since v3.1._\n     */\n    function functionCall(address target, bytes memory data, string memory errorMessage) internal returns (bytes memory) {\n        return _functionCallWithValue(target, data, 0, errorMessage);\n    }\n\n    /**\n     * @dev Same as {xref-Address-functionCall-address-bytes-}[`functionCall`],\n     * but also transferring `value` wei to `target`.\n     *\n     * Requirements:\n     *\n     * - the calling contract must have an ETH balance of at least `value`.\n     * - the called Solidity function must be `payable`.\n     *\n     * _Available since v3.1._\n     */\n    function functionCallWithValue(address target, bytes memory data, uint256 value) internal returns (bytes memory) {\n        return functionCallWithValue(target, data, value, \"Address: low-level call with value failed\");\n    }\n\n    /**\n     * @dev Same as {xref-Address-functionCallWithValue-address-bytes-uint256-}[`functionCallWithValue`], but\n     * with `errorMessage` as a fallback revert reason when `target` reverts.\n     *\n     * _Available since v3.1._\n     */\n    function functionCallWithValue(address target, bytes memory data, uint256 value, string memory errorMessage) internal returns (bytes memory) {\n        require(address(this).balance >= value, \"Address: insufficient balance for call\");\n        return _functionCallWithValue(target, data, value, errorMessage);\n    }\n\n    function _functionCallWithValue(address target, bytes memory data, uint256 weiValue, string memory errorMessage) private returns (bytes memory) {\n        require(isContract(target), \"Address: call to non-contract\");\n\n        // solhint-disable-next-line avoid-low-level-calls\n        (bool success, bytes memory returndata) = target.call{ value: weiValue }(data);\n        if (success) {\n            return returndata;\n        } else {\n            // Look for revert reason and bubble it up if present\n            if (returndata.length > 0) {\n                // The easiest way to bubble the revert reason is using memory via assembly\n\n                // solhint-disable-next-line no-inline-assembly\n                assembly {\n                    let returndata_size := mload(returndata)\n                    revert(add(32, returndata), returndata_size)\n                }\n            } else {\n                revert(errorMessage);\n            }\n        }\n    }\n}\n\n/**\n * @dev Implementation of the {IERC20} interface.\n *\n * This implementation is agnostic to the way tokens are created. This means\n * that a supply mechanism has to be added in a derived contract using {_mint}.\n * For a generic mechanism see {ERC20PresetMinterPauser}.\n *\n * TIP: For a detailed writeup see our guide\n * https://forum.zeppelin.solutions/t/how-to-implement-erc20-supply-mechanisms/226[How\n * to implement supply mechanisms].\n *\n * We have followed general OpenZeppelin guidelines: functions revert instead\n * of returning `false` on failure. This behavior is nonetheless conventional\n * and does not conflict with the expectations of ERC20 applications.\n *\n * Additionally, an {Approval} event is emitted on calls to {transferFrom}.\n * This allows applications to reconstruct the allowance for all accounts just\n * by listening to said events. Other implementations of the EIP may not emit\n * these events, as it isn't required by the specification.\n *\n * Finally, the non-standard {decreaseAllowance} and {increaseAllowance}\n * functions have been added to mitigate the well-known issues around setting\n * allowances. See {IERC20-approve}.\n */\ncontract ERC20 is Context, IERC20 {\n    using SafeMath for uint256;\n    using Address for address;\n\n    mapping (address => uint256) private _balances;\n\n    mapping (address => mapping (address => uint256)) private _allowances;\n\n    uint256 private _totalSupply;\n\n    string private _name;\n    string private _symbol;\n    uint8 private _decimals;\n\n    /**\n     * @dev Sets the values for {name} and {symbol}, initializes {decimals} with\n     * a default value of 18.\n     *\n     * To select a different value for {decimals}, use {_setupDecimals}.\n     *\n     * All three of these values are immutable: they can only be set once during\n     * construction.\n     */\n    constructor (string memory name, string memory symbol) public {\n        _name = name;\n        _symbol = symbol;\n        _decimals = 18;\n    }\n\n    /**\n     * @dev Returns the name of the token.\n     */\n    function name() public view returns (string memory) {\n        return _name;\n    }\n\n    /**\n     * @dev Returns the symbol of the token, usually a shorter version of the\n     * name.\n     */\n    function symbol() public view returns (string memory) {\n        return _symbol;\n    }\n\n    /**\n     * @dev Returns the number of decimals used to get its user representation.\n     * For example, if `decimals` equals `2`, a balance of `505` tokens should\n     * be displayed to a user as `5,05` (`505 / 10 ** 2`).\n     *\n     * Tokens usually opt for a value of 18, imitating the relationship between\n     * Ether and Wei. This is the value {ERC20} uses, unless {_setupDecimals} is\n     * called.\n     *\n     * NOTE: This information is only used for _display_ purposes: it in\n     * no way affects any of the arithmetic of the contract, including\n     * {IERC20-balanceOf} and {IERC20-transfer}.\n     */\n    function decimals() public view returns (uint8) {\n        return _decimals;\n    }\n\n    /**\n     * @dev See {IERC20-totalSupply}.\n     */\n    function totalSupply() public view override returns (uint256) {\n        return _totalSupply;\n    }\n\n    /**\n     * @dev See {IERC20-balanceOf}.\n     */\n    function balanceOf(address account) public view override returns (uint256) {\n        return _balances[account];\n    }\n\n    /**\n     * @dev See {IERC20-transfer}.\n     *\n     * Requirements:\n     *\n     * - `recipient` cannot be the zero address.\n     * - the caller must have a balance of at least `amount`.\n     */\n    function transfer(address recipient, uint256 amount) public virtual override returns (bool) {\n        _transfer(_msgSender(), recipient, amount);\n        return true;\n    }\n\n    /**\n     * @dev See {IERC20-allowance}.\n     */\n    function allowance(address owner, address spender) public view virtual override returns (uint256) {\n        return _allowances[owner][spender];\n    }\n\n    /**\n     * @dev See {IERC20-approve}.\n     *\n     * Requirements:\n     *\n     * - `spender` cannot be the zero address.\n     */\n    function approve(address spender, uint256 amount) public virtual override returns (bool) {\n        _approve(_msgSender(), spender, amount);\n        return true;\n    }\n\n    /**\n     * @dev See {IERC20-transferFrom}.\n     *\n     * Emits an {Approval} event indicating the updated allowance. This is not\n     * required by the EIP. See the note at the beginning of {ERC20};\n     *\n     * Requirements:\n     * - `sender` and `recipient` cannot be the zero address.\n     * - `sender` must have a balance of at least `amount`.\n     * - the caller must have allowance for ``sender``'s tokens of at least\n     * `amount`.\n     */\n    function transferFrom(address sender, address recipient, uint256 amount) public virtual override returns (bool) {\n        _transfer(sender, recipient, amount);\n        _approve(sender, _msgSender(), _allowances[sender][_msgSender()].sub(amount, \"ERC20: transfer amount exceeds allowance\"));\n        return true;\n    }\n\n    /**\n     * @dev Atomically increases the allowance granted to `spender` by the caller.\n     *\n     * This is an alternative to {approve} that can be used as a mitigation for\n     * problems described in {IERC20-approve}.\n     *\n     * Emits an {Approval} event indicating the updated allowance.\n     *\n     * Requirements:\n     *\n     * - `spender` cannot be the zero address.\n     */\n    function increaseAllowance(address spender, uint256 addedValue) public virtual returns (bool) {\n        _approve(_msgSender(), spender, _allowances[_msgSender()][spender].add(addedValue));\n        return true;\n    }\n\n    /**\n     * @dev Atomically decreases the allowance granted to `spender` by the caller.\n     *\n     * This is an alternative to {approve} that can be used as a mitigation for\n     * problems described in {IERC20-approve}.\n     *\n     * Emits an {Approval} event indicating the updated allowance.\n     *\n     * Requirements:\n     *\n     * - `spender` cannot be the zero address.\n     * - `spender` must have allowance for the caller of at least\n     * `subtractedValue`.\n     */\n    function decreaseAllowance(address spender, uint256 subtractedValue) public virtual returns (bool) {\n        _approve(_msgSender(), spender, _allowances[_msgSender()][spender].sub(subtractedValue, \"ERC20: decreased allowance below zero\"));\n        return true;\n    }\n\n    /**\n     * @dev Moves tokens `amount` from `sender` to `recipient`.\n     *\n     * This is internal function is equivalent to {transfer}, and can be used to\n     * e.g. implement automatic token fees, slashing mechanisms, etc.\n     *\n     * Emits a {Transfer} event.\n     *\n     * Requirements:\n     *\n     * - `sender` cannot be the zero address.\n     * - `recipient` cannot be the zero address.\n     * - `sender` must have a balance of at least `amount`.\n     */\n    function _transfer(address sender, address recipient, uint256 amount) internal virtual {\n        require(sender != address(0), \"ERC20: transfer from the zero address\");\n        require(recipient != address(0), \"ERC20: transfer to the zero address\");\n\n        _beforeTokenTransfer(sender, recipient, amount);\n\n        _balances[sender] = _balances[sender].sub(amount, \"ERC20: transfer amount exceeds balance\");\n        _balances[recipient] = _balances[recipient].add(amount);\n        emit Transfer(sender, recipient, amount);\n    }\n\n    /** @dev Creates `amount` tokens and assigns them to `account`, increasing\n     * the total supply.\n     *\n     * Emits a {Transfer} event with `from` set to the zero address.\n     *\n     * Requirements\n     *\n     * - `to` cannot be the zero address.\n     */\n    function _mint(address account, uint256 amount) internal virtual {\n        require(account != address(0), \"ERC20: mint to the zero address\");\n\n        _beforeTokenTransfer(address(0), account, amount);\n\n        _totalSupply = _totalSupply.add(amount);\n        _balances[account] = _balances[account].add(amount);\n        emit Transfer(address(0), account, amount);\n    }\n\n    /**\n     * @dev Destroys `amount` tokens from `account`, reducing the\n     * total supply.\n     *\n     * Emits a {Transfer} event with `to` set to the zero address.\n     *\n     * Requirements\n     *\n     * - `account` cannot be the zero address.\n     * - `account` must have at least `amount` tokens.\n     */\n    function _burn(address account, uint256 amount) internal virtual {\n        require(account != address(0), \"ERC20: burn from the zero address\");\n\n        _beforeTokenTransfer(account, address(0), amount);\n\n        _balances[account] = _balances[account].sub(amount, \"ERC20: burn amount exceeds balance\");\n        _totalSupply = _totalSupply.sub(amount);\n        emit Transfer(account, address(0), amount);\n    }\n\n    /**\n     * @dev Sets `amount` as the allowance of `spender` over the `owner`s tokens.\n     *\n     * This is internal function is equivalent to `approve`, and can be used to\n     * e.g. set automatic allowances for certain subsystems, etc.\n     *\n     * Emits an {Approval} event.\n     *\n     * Requirements:\n     *\n     * - `owner` cannot be the zero address.\n     * - `spender` cannot be the zero address.\n     */\n    function _approve(address owner, address spender, uint256 amount) internal virtual {\n        require(owner != address(0), \"ERC20: approve from the zero address\");\n        require(spender != address(0), \"ERC20: approve to the zero address\");\n\n        _allowances[owner][spender] = amount;\n        emit Approval(owner, spender, amount);\n    }\n\n    /**\n     * @dev Sets {decimals} to a value other than the default one of 18.\n     *\n     * WARNING: This function should only be called from the constructor. Most\n     * applications that interact with token contracts will not expect\n     * {decimals} to ever change, and may work incorrectly if it does.\n     */\n    function _setupDecimals(uint8 decimals_) internal {\n        _decimals = decimals_;\n    }\n\n    /**\n     * @dev Hook that is called before any transfer of tokens. This includes\n     * minting and burning.\n     *\n     * Calling conditions:\n     *\n     * - when `from` and `to` are both non-zero, `amount` of ``from``'s tokens\n     * will be to transferred to `to`.\n     * - when `from` is zero, `amount` tokens will be minted for `to`.\n     * - when `to` is zero, `amount` of ``from``'s tokens will be burned.\n     * - `from` and `to` are never both zero.\n     *\n     * To learn more about hooks, head to xref:ROOT:extending-contracts.adoc#using-hooks[Using Hooks].\n     */\n    function _beforeTokenTransfer(address from, address to, uint256 amount) internal virtual { }\n}\n\n/**\n * @dev Extension of {ERC20} that allows token holders to destroy both their own\n * tokens and those that they have an allowance for, in a way that can be\n * recognized off-chain (via event analysis).\n */\nabstract contract ERC20Burnable is Context, ERC20 {\n    /**\n     * @dev Destroys `amount` tokens from the caller.\n     *\n     * See {ERC20-_burn}.\n     */\n    function burn(uint256 amount) public virtual {\n        _burn(_msgSender(), amount);\n    }\n\n    /**\n     * @dev Destroys `amount` tokens from `account`, deducting from the caller's\n     * allowance.\n     *\n     * See {ERC20-_burn} and {ERC20-allowance}.\n     *\n     * Requirements:\n     *\n     * - the caller must have allowance for ``accounts``'s tokens of at least\n     * `amount`.\n     */\n    function burnFrom(address account, uint256 amount) public virtual {\n        uint256 decreasedAllowance = allowance(account, _msgSender()).sub(amount, \"ERC20: burn amount exceeds allowance\");\n\n        _approve(account, _msgSender(), decreasedAllowance);\n        _burn(account, amount);\n    }\n}\n\nabstract contract ERC20Mintable is Context, ERC20 {\n    /**\n     * @dev Destroys `amount` tokens from the caller.\n     *\n     * See {ERC20-_burn}.\n     */\n    function mint(address account, uint256 amount) public virtual {\n        _mint(account, amount);\n    }\n\n}\n\ncontract Demeter {\n    using SafeMath for uint256;\nconstructor () public {}\n\n//Events\nevent Initialized(bool initialized);\n\nevent TokenUnlocked(\n    address account,\n    address asset,\n    uint amount\n    );\n\nevent TokenLocked(\n    address account,\n    address asset,\n    uint amount\n    );\n    \nevent SynthIssued(\n    address account,\n    address asset,\n    uint amount\n    );\n    \nevent SynthBurned(\n    address account,\n    address asset,\n    uint amount\n    );\n\nbool initialized;\naddress[] owners;\naddress ONEBase = 0x0000000000000000000000000000000000000000;\n\nstruct synthetic {\n    address tokenAddress;\n    uint exchangePrice;\n    uint collateralizationRate;\n    uint governanceToken;\n}\n\nstruct order {\n    uint sendingAmount;\n    uint receivingAmount;\n}\n\nsynthetic[] public Synthetics;\n\n    function initialize(address govToken) public {\n        require(initialized == false, \"Already initialized\");\n        \n        // Pushes Government Token to Synthetics Array, sets $5 exchange rate, 1000% collateralizationRate and sets governmentToken flag to true or 1\n        synthetic memory gt = synthetic(govToken, 500, 10, 1);\n        synthetic memory one = synthetic(ONEBase, 1, 10, 0);\n        Synthetics.push(gt);\n        Synthetics.push(one);\n        owners.push(msg.sender);\n        initialized = true;\n    }\n\n    modifier authorized (){\n        require(isOwner() || msg.sender == address(this), \"Not Authorized.\");\n        _;\n    }\n    \n    function addOwner(address owner) public authorized {\n        owners.push(owner);\n    }\n    \n    function isOwner() public view returns (bool) {\n        for(uint x = 0; x < owners.length; x++){\n            if(owners[x] == msg.sender){\n                return true;\n            } else {\n                return false;\n            }\n        }\n    }\n\n    function setExchangePrice(address asset, uint price) public authorized {\n        for(uint x = 0; x < Synthetics.length; x++){\n            if(Synthetics[x].tokenAddress == asset){\n                Synthetics[x].exchangePrice = price;\n            }\n            }\n    }\n\n    function getExchangePrice(address asset) public view returns (uint){\n                for(uint x = 0; x < Synthetics.length; x++){\n            if(Synthetics[x].tokenAddress == asset){\n                return Synthetics[x].exchangePrice;\n            }\n            }\n    }\n\n    function getCollateralizationTotal(address depositedAsset, address receivedAsset, uint amount) public view returns (uint){\n        synthetic memory base = getSynth(depositedAsset);\n        synthetic memory receiving = getSynth(receivedAsset);\n        uint collateralizationTotal = amount.div(base.collateralizationRate);\n        uint receivingAssetTotal = collateralizationTotal.mul(base.exchangePrice).div(receiving.exchangePrice);\n        \n        return receivingAssetTotal;\n    }\n\n    function setGovernanceAddress(address govAddress) public authorized {\n                for(uint x = 0; x < Synthetics.length; x++){\n            if(Synthetics[x].governanceToken == 1){\n                 Synthetics[x].tokenAddress = govAddress;\n            }\n        }\n    }\n    \n    function getGovernanceAddress() public view returns (address){\n                      for(uint x = 0; x < Synthetics.length; x++){\n            if(Synthetics[x].governanceToken == 1){\n                 return Synthetics[x].tokenAddress;\n            }\n        }\n    }\n\n    function lockToken(address synth, uint amount) public payable {\n        require(msg.value > 0 || amount > 0, \"Must deposit an asset\");\n\n        //Lock ONE\n        if(msg.value > 0){\n             issueSynths(synth, msg.sender, getCollateralizationTotal(ONEBase, synth, msg.value));\n             SynthIssued(msg.sender, synth, getCollateralizationTotal(ONEBase, synth, msg.value));\n        } else {\n            //Lock HRC20 Governance Token\n            ERC20(getGovernanceAddress()).transfer(address(this), amount);\n            issueSynths(synth, msg.sender, getCollateralizationTotal(getGovernanceAddress(), synth, amount));\n            SynthIssued(msg.sender, synth, getCollateralizationTotal(getGovernanceAddress(), synth, msg.value));\n        }\n    }\n    \n    function getSynth(address asset) public view returns (synthetic memory){\n        for(uint x = 0; x < Synthetics.length; x++){\n            if(Synthetics[x].tokenAddress == asset && Synthetics[x].governanceToken == 0){\n                return Synthetics[x];\n            }\n        }\n    }\n    \n    function returnBalance(address asset) public view returns (uint){\n        require(asset != address(0x0), \"Enter asset address\");\n        if(asset == ONEBase){\n            return address(this).balance;\n        } else {\n            return ERC20(asset).balanceOf(address(this));\n        }\n    }\n\n    function unlockToken(address asset, address returnAsset, uint amount) public payable {\n        require(msg.value > 0 || amount > 0, \"Must deposit an asset\");\n        require(returnAsset != address(0x0), \"Must have return asset specified\");\n                //Unlock ONE or Governance Token\n\n                uint returnValue = getCollateralizationTotal(asset, returnAsset, amount);\n                \n            if(asset == ONEBase){\n                require(returnBalance(ONEBase) > returnValue, \"Not enough in contract\");\n                burnSynths(asset, msg.sender, amount);\n                msg.sender.transfer(returnValue);\n            } else {\n                require(returnBalance(asset) > returnValue, \"Not enough in contract\");\n                burnSynths(asset, msg.sender, amount);\n                ERC20(returnAsset).transfer(msg.sender, returnValue);\n            }\n            \n\n    }\n\n    function addAsset(address asset, uint collateralizationRate, uint exchangePrice, uint govToken) public authorized {\n        require(govToken == 1 || govToken == 0, \"govToken parameters only take 0 or 1.\");\n        synthetic memory synth = synthetic(asset, exchangePrice, collateralizationRate, govToken);\n        Synthetics.push(synth);\n    }\n\n    function removeAsset(address asset) public authorized {\n                for(uint x; x < Synthetics.length; x++){\n            if(Synthetics[x].tokenAddress == asset){\n                Synthetics[x] = Synthetics[Synthetics.length -1];\n                delete Synthetics[Synthetics.length - 1];\n                Synthetics.pop();\n            }\n        }\n    }\n\n    function issueSynths(address asset, address receiver, uint amount) internal {\n        ERC20Mintable(asset).mint(receiver, amount);\n        emit SynthIssued(receiver, asset, amount);\n    }\n\n    function burnSynths(address asset, address receiver, uint amount) internal {\n        ERC20Burnable(asset).burnFrom(receiver, amount);\n        emit SynthBurned(receiver, asset, amount);\n    }\n\n}\n",
  "sourcePath": "/Users/yuriy/pro5/harmony-harvest.contract/contracts/Demeter.sol",
  "compiler": {
    "name": "solc",
    "version": "0.6.2+commit.bacdbe57.Emscripten.clang"
  },
  "schemaVersion": "3.2.0",
  "updatedAt": "2020-09-04T23:56:13.067Z",
  "devdoc": {
    "methods": {}
  },
  "userdoc": {
    "methods": {}
  }
}